:020000040800F2
:100000007011002069020008A92B00086F24000865
:10001000C129000861050008D93700080000000068
:100020000000000000000000000000001331000884
:100030007508000800000000113100085331000865
:10004000830200088302000883020008830200087C
:10005000830200088302000883020008830200086C
:10006000830200088302000883020008830200085C
:10007000890700088302000895070008830200082A
:10008000A1070008AD0700088302000883020008EA
:10009000830200088302000883020008830200082C
:1000A000830200088302000883020008830200081C
:1000B000830200088302000883020008830200080C
:1000C00083020008830200088302000883020008FC
:1000D00083020008C1370008CD37000883020008FA
:1000E00083020008830200088302000883020008DC
:1000F00083020008830200088302000883020008CC
:100100008302000883020008FD3100088302000812
:1001100083020008830200088302000883020008AB
:100120008302000883020008B90700088302000860
:10013000830200088302000883020008830200088B
:10014000830200088302000883020008830200087B
:100150008302000883020008C50700088302000824
:10016000830200088302000883020008830200085B
:1001700083020008830200088302000800000000D8
:10018000830200088302000800F002F800F05CF827
:100190000AA090E8000C82448344AAF10107DA45E2
:1001A00001D100F051F8AFF2090EBAE80F0013F0D8
:1001B000010F18BFFB1A43F001031847A4410000C8
:1001C000C44100000A444FF0000C10F8013B13F04A
:1001D000070408BF10F8014B1D1108BF10F8015BA0
:1001E000641E05D010F8016B641E01F8016BF9D193
:1001F00013F0080F1EBF10F8014BAD1C0C1B09D1EA
:100200006D1E58BF01F801CBFAD505E014F8016B5B
:1002100001F8016B6D1EF9D59142D6D370470000ED
:100220000023002400250026103A28BF78C1FBD8FF
:10023000520728BF30C148BF0B6070471FB503F09D
:1002400061FC1FBD10B510BD00F0D4F81146FFF7DA
:10025000F5FF03F09DFB00F0F2F803B4FFF7F2FFA7
:1002600003BC00F0F5F80000094880470948004742
:10027000FEE7FEE7FEE7FEE7FEE7FEE7FEE7FEE756
:10028000FEE7FEE704480549054A064B70470000B3
:10029000ED31000889010008700B0020701100206A
:1002A000700D0020700D002053EA020C00F06980F0
:1002B0002DE9F04B4FF00006002B1FBFB3FA83F57A
:1002C00003FA05F424FA05F65E4012BF1643B2FAAB
:1002D00082F502FA05F4C5F120051EBF22FA05FCDD
:1002E00044EA0C04203556EA044C4FEA144418BF83
:1002F000641C4FF000084FF00009904271EB030CB2
:1003000039D3002919BFB1FA81F701FA07F6B0FA1B
:1003100080F700FA07F6C7F120071EBF20FA07FC96
:1003200046EA0C062037B6FBF4FCA7EB0507103FA6
:1003300007F01F0BCBF120060CFA0BFB2CFA06F68C
:1003400044BFB3460026202FA4BF5E464FF0000BEB
:100350005BEA060C08BF4FF0010B19EB0B09ABFB76
:10036000027C48EB0608C01B06FB02CC0BFB03CC4F
:1003700071EB0C01C1E70B46024641464846BDE819
:10038000F08B13B54FF000004FF00001AFF3008089
:10039000BDE81C4070474FF0000200B5134694467C
:1003A0009646203922BFA0E80C50A0E80C50B1F1CD
:1003B0002001BFF4F7AF090728BFA0E80C5048BFE1
:1003C0000CC05DF804EB890028BF40F8042B08BF7F
:1003D000704748BF20F8022B11F0804F18BF00F87B
:1003E000012B704770477047704700000048704706
:1003F000100B00207546FFF7F9FFAE460500694671
:10040000534620F00700854618B020B5FFF73AFFA5
:10041000BDE820404FF000064FF000074FF0000805
:100420004FF0000B21F00701AC46ACE8C009ACE886
:10043000C009ACE8C009ACE8C0098D46704710B5EA
:100440000446AFF300802046BDE81040FFF705BF2B
:1004500001491820ABBEFEE72600020070470000ED
:1004600010B502F0F7FA02F039FB00F006FA0F4877
:1004700002F0CEFD0D48403002F0CAFD0B4880303E
:1004800002F0C6FD02F01FFC02F090FB00210823E1
:1004900007A2084602F02BFD02F06CFD02F058FBAB
:1004A000024900202C39087010BD0000CC0000204B
:1004B000524541445900000070B504212DED028BD6
:1004C000244800F0DFFCD0B10020234C0025217926
:1004D00088423CD16179491CC9B26171052933D385
:1004E00005216171A17981422ED0A07100282BD005
:1004F00060789FED1A8A012618B165700EE0012020
:10050000E3E7207850B1207801281DD1E5702570EF
:10051000BDEC028BBDE8704002F01ABB02F0DEFABF
:100520000D482C3002F074FD0B486C3002F070FD69
:100530000948AC3002F06CFD84ED058A84ED068A32
:100540006581A581E6702670BDEC028B70BD65717A
:100550002071F9E700100240A00000200000000018
:10056000FEE700002DE9F0477D4C2DED068B60780D
:10057000002848D17B4802F05DFA7B4802F05AFA25
:1005800000F07EF90023794D794A19461846165C29
:1005900026B12E56491C33441BB209B2401C082810
:1005A000F5DB002741B193FBF1F0608240B2A0700F
:1005B000A07818B1012302E03846F8E700230020B4
:1005C0000146555C0DB1401CC0B2491C0829F8DB3E
:1005D000DFF88C9109F1AC099FED668AA9F18005DD
:1005E00005F14006082801D0042810D385ED0B8AB8
:1005F00086ED0B8A89ED0B8A02F0AAFA0120607061
:10060000E7702770E771BDEC068BBDE8F087E079F5
:1006100020B11BB985ED0B8A86ED0B8AE371514839
:1006200002F014FA8046504802F010FA0746A4F887
:100630000E80208200EE108AB8EEC09A00EE100AFA
:1006400084ED079AF8EEC08AC4ED088A84ED059A15
:10065000C4ED068AE0780028D5D094F90200C84697
:1006600000EE100A3E48B8EEC00AAC3089ED010A2F
:1006700089ED008A02F0DAFC98ED0F0A94F9020085
:10068000002805DB94F90200002801DCB0EE480ADE
:10069000DFED390AB0EE481A20EE200ADFED370A06
:1006A000F0EE413AB0EE413A70EE209A30EEC0AA38
:1006B00000EE107AF0EE411AB0EE692AF8EEC02A88
:1006C000F0EE490AB0EE4A0A03F088F894ED090A00
:1006D0002B483AEE400A10EE101A814210DC10EE60
:1006E000101A284A91420BD894ED0A0A39EEC00A32
:1006F00010EE101A814203DC10EE100A904203D96A
:1007000085ED0B8A86ED0B8A84ED09AAC4ED0A9A61
:10071000134885ED00AA85ED019A2C3002F086FC85
:100720000F48C6ED009AC6ED018A6C3002F07EFCDF
:1007300095ED0F0ABDEEC00A10EE100A608196ED2D
:100740000F0ABDEEC00A10EE100AA081B4F90C1019
:10075000B4F90A00BDEC068BBDE8F04702F032B9EF
:10076000A00000205000002078000020384300083E
:100770008C010020000000009A99193F000070428F
:1007800000002041000020C1014800F011B9000024
:10079000500A0020014800F00BB90000B00A002008
:1007A000014800F005B9000090090020014800F060
:1007B000FFB80000F0090020014800F0F9B800007F
:1007C00030090020014800F0F3B80000D0080020F4
:1007D00001681823CAB2103AB2FBF3F2054B6FF36B
:1007E0000901032A9B5CC36500D9091D8165084680
:1007F000704700004043000810B5014600208B6997
:100800008A6A4FF0C07453B1B3F5005F15D072B16E
:10081000012A0CD0022A0AD0032A09D104E01AB115
:10082000012A06D0022A03D1C96AC90100D50120D4
:1008300010BDC96AA142FAD010BD002AF7D0012A22
:10084000F2D0022AF3D0032AF3D010BD30B50468E9
:10085000256825F480252560046863608368402B43
:10086000036803D099600068C26030BD9A60006878
:10087000C16030BD704772B6FEE700F001B80000FD
:100880002DE9F843194D00244FF400474FF48058E8
:100890004FF400694FF4FA76C4F3800239462846D3
:1008A00000F0F5FAC4F340024146284600F0EFFAA2
:1008B00004F001024946284600F0E9FA009600E0FB
:1008C00000BF0098411E0091FAD24FF480610848A1
:1008D00000F0D8FA012800D0002006490855641C11
:1008E000E4B2082CD8D3BDE8F88300000000024031
:1008F000000802408C0100202DE9F0410446876D7C
:1009000000F0CAFA064694F835000025022806D001
:100910008020606584F834500120BDE8F0812068B3
:10092000016821F0160101602068416921F0800111
:100930004161206C08B9A06C20B12068016821F0E9
:10094000080101602068016821F0010101600CE0EC
:1009500000F0A2FA801B052807D92020606503203B
:1009600084F8350084F83450D7E720680068C00761
:10097000EED194F85C103F208840B860012084F8E4
:10098000350084F834500020C7E790F8351002296C
:1009900003D08021416501207047052180F8351082
:1009A0000068016821F0010101600020704700002B
:1009B0002DE9F84304464FF00009CDF80090634854
:1009C0004FF41651A56D0068B0FBF1F72E6894F84E
:1009D0005C10082000FA01F131420FD021680A684A
:1009E00052070BD50A6822F004020A6094F85C10E2
:1009F0008840A860606D40F00100606594F85C106C
:100A00004FF0010808FA01F0304208D02168496926
:100A1000090604D5A860606D40F00200606594F896
:100A20005C1004208840304208D02168096889079A
:100A300004D5A860606D40F00400606594F85C1017
:100A400010208840304218D021680968090714D561
:100A5000A86020680168490304D50068000308D530
:100A6000A16C07E00168C90503D4016821F0080101
:100A70000160216C09B12046884794F85C10202061
:100A80008840304231D021680968C9062DD5A86058
:100A900094F8350005282068016806D0490347D539
:100AA000006800031DD4616C1CE021F01601016098
:100AB0002068416921F080014161206C08B9A06C77
:100AC00020B12068016821F00801016094F85C10F1
:100AD0003F208840A86084F8358084F83490216DE8
:100AE0001FE0E16B09B120468847606D00282BD0DC
:100AF000606DC00714D0052084F8350020680168B7
:100B000021F0010101600098401C0090B84203D818
:100B100020680068C007F6D184F8358084F83490E6
:100B2000E16C002910D001B02046BDE8F043084731
:100B30000168C905D5D4016821F01001016084F86D
:100B4000358084F83490CCE7BDE8F883A401002018
:100B50002DE9F041044600F09FF906465CB1022001
:100B600084F83500002584F834502068016821F0AD
:100B7000010101600DE00120BDE8F08100F08CF979
:100B8000801B052805D920206065032084F83500E6
:100B9000F2E720680068C007F0D122681168204899
:100BA0000140D4E901031843D4E903363343184321
:100BB00063691843A3691843E3691843236A184318
:100BC0000843616A042903D1D4E90B13194308438C
:100BD000106020684069666A20F0070130460E43C5
:100BE000012704280CD1A06A0643E06A40B12046E0
:100BF000FFF702FE20B14020606584F83570BAE747
:100C0000206846612046FFF7E3FD94F85C203F2111
:100C100091408160656584F835700020ACE7000084
:100C20003F8010F02DE9F0410446866D90F83400C5
:100C3000002501280DD0012084F8340094F8357087
:100C40000020012F07D084F8340002252846BDE893
:100C5000F0810220FBE7022784F8357060652046AA
:100C6000FFF7F4FD94F85C103F208840B0602068E6
:100C7000016841F016010160206C20B12068016814
:100C800041F0080101602068016841F00101016044
:100C9000DCE700002DE9F84FDFF8BCA100220125B8
:100CA00003264FF00F090AF1040BAAF1040E00BF4E
:100CB0000B6805FA02F42340A34270D10F7907F0C4
:100CC0000307012F01D0022F16D187684FEA42088F
:100CD00006FA08FC27EA0C07D1F80CC00CFA08FC4D
:100CE0004CEA070CC0F808C04768A7430C79C4F366
:100CF000001494403C4344600C79E443A4070AD0B8
:100D0000C4684FEA420C06FA0CF7BC438F6807FA36
:100D10000CF72743C7600C7904F00304022C12D1AE
:100D2000D40800EB840CDCF820405707FF0E09FACA
:100D300007F824EA0804D1F8108008FA07F848EA0E
:100D40000408CCF8208004684FEA420C06FA0CF73D
:100D5000BC430F7907F0030707FA0CF72743076036
:100D60004C6814F4403F70D03C4C276847F48047EF
:100D70002760246822F0030704F480440094384C70
:100D800007EB040CDCF8084897074FEA177809FAD4
:100D900008F7BC43334FB84202D1002724E054E0A7
:100DA000314FB84201D101271EE0304FB84201D186
:100DB000022719E02E4FB84201D1032714E02D4F2E
:100DC000B84201D104270FE02B4FB84201D10527CB
:100DD0000AE02A4FB84201D1062705E0284FB84261
:100DE00001D1072700E0082707FA08F72743CCF8C6
:100DF0000878DAF800405746D1F804C09C435FEA0F
:100E0000CC2C00D51C433C60DBF800405F46D1F899
:100E100004C09C435FEA8C2C00D51C433C60DEF888
:100E200000407746D1F804C09C435FEA8C3C00D573
:100E30001C433C60084F083F3C68D1F804C09C4309
:100E40005FEACC3C00D51C433C60521C102AFFF4E6
:100E50002FAFBDE8F88F0000083C01404438024045
:100E6000003001400000024000040240000802403F
:100E7000000C024000100240001402400018024022
:100E8000001C02400069084000D0012070470AB1F0
:100E9000816170470904FBE70148806870470000E2
:100EA00098010020024881680278114481607047EF
:100EB000980100200B4810B5016841F400710160F1
:100EC000016841F480610160016841F48071016052
:100ED000032000F06FF80F2000F006F800F024F86F
:100EE000002010BD003C024070B50D4D04464FF48B
:100EF0007A712878B1FBF0F00A490968B1FBF0F08B
:100F000000F00CFB48B9102C07D200222146501EDD
:100F100000F030F800206C6070BD012070BD000052
:100F200098010020A40100200A4808B5016841F496
:100F300080410160006800F4804000900548001F77
:100F4000016841F080510160006800F0805000901D
:100F500008BD000044380240002809DB00F01F02F1
:100F6000012191404009800000F1E020C0F800110B
:100F700070470000F0B40E4B1B680C46C3F302230D
:100F8000C3F10705042D00D90425191D072901D235
:100F9000002300E0DB1E012606FA05F1491E214070
:100FA00099409E40761E16403143F0BC02F052BC80
:100FB0000CED00E0064900F0070208684FF6FF0359
:100FC000184040EA0220034A1043086070470000BE
:100FD0000CED00E00000FA052DE9F0470E46050093
:100FE00065D0DFF81481D8F80000F7B200F00700F0
:100FF000B04207D288F80070D8F8000000F007006F
:10100000B04254D128683D4C810712D5400703D522
:10101000206840F4E05020602878000703D520685D
:1010200040F4604020602068A96820F0F000084388
:1010300020602878C0072DD0304968680839012819
:1010400012D0022813D0032811D00968890700297B
:101050002DDA216821F0030101432160FFF71CFF15
:10106000814641F2883A0EE009688903EFE7096892
:101070008901ECE7FFF710FFA0EB0901514502D908
:101080000320BDE8F0872068696800F00C00B0EB31
:10109000810FEFD1D8F80010404601F00701B142AE
:1010A00007D90770006800F00700B04201D00120A6
:1010B000E7E72878400705D52068E96820F4E05084
:1010C000084320602878000706D52068296920F4A5
:1010D000604040EAC100206000F038F82168084A0A
:1010E000C1F30311515CC840064908600648006816
:1010F000FFF7FAFE0020C4E7003C02400838024037
:1011000048430008A40100209C0100200448054930
:1011100000680968044AC1F38221515CC8407047E5
:10112000A40100200838024058430008044805493B
:1011300000680968044AC1F34231515CC8407047F5
:10114000A40100200838024058430008154810B593
:10115000006810F00C02144813D01449042A0FD070
:10116000082A0ED10F4C241F2268236802F03F0288
:101170005B0207D52068C0F38810A0FB010106E0E0
:10118000084610BD2168C1F38811A1FB00010023AE
:10119000FFF78AF82168C1F30141491C4900B0FBFF
:1011A000F1F010BD083802400024F40040787D01C1
:1011B0002DE9F84F04006ED02078DFF84C93C0077B
:1011C000A9F104054AD009F104000168C1F38101C5
:1011D000012908D00068C0F3810002280AD1D9F89B
:1011E0000000400206D52868800337D560680028D3
:1011F000E1D033E06068B0F5803F10D0B0F5A02FAB
:10120000286810D020F480302860286820F48020DE
:1012100028606068A8B1FFF73FFE06460DE0286829
:1012200040F48030F4E740F480202860F7E700BF06
:10123000FFF732FE801B642873D828688003F7D537
:101240000CE0FFF729FE064605E000BFFFF724FE8D
:10125000801B6428F0D828688003F7D42078DFF852
:10126000AC8280074FF0000A3ED5A748001D0168F8
:1012700011F00C0F08D00068C0F3810002280BD1D8
:10128000D9F80000400207D42868800716D5E06826
:10129000012800D112E033E1E068B8B10120C8F8BC
:1012A0000000FFF7F9FD064605E000BFFFF7F4FD7B
:1012B000801B0228C0D828688007F7D528682169D4
:1012C00020F0F80040EAC10028600DE0C8F800A056
:1012D000FFF7E2FD064604E0FFF7DEFD801B022873
:1012E0001FD828688007F7D42078000722D5864FBA
:1012F00087486169703771B101210160FFF7CCFD4A
:10130000064604E0FFF7C8FD801B022809D83868AC
:101310008007F7D50EE0C0F800A0FFF7BDFD064638
:1013200005E082E0FFF7B8FD801B02287DD8386811
:101330008007F7D42078400768D5DFF8CCB10027C4
:101340000BF13C0BDBF80000C0000BD4DBF8001005
:1013500041F08051CBF80010DBF80000012700F0CD
:10136000805000906B4E3068C00510D4306840F457
:1013700080703060FFF790FD009005E0FFF78CFD76
:101380000099401A022850D83068C005F6D55E4E44
:10139000A0686C3601280FD00528306810D020F0E6
:1013A00001003060306820F004003060A068B8B1FF
:1013B000FFF772FD00900FE0306840F00100F4E7A5
:1013C00040F004003060F7E7FFF766FD0099411A2E
:1013D00041F28830814266D830688007F4D50EE04B
:1013E000FFF75AFD009007E0FFF756FD0099411AFC
:1013F00041F28830814256D830688007F4D42FB14A
:10140000DBF8001021F08051CBF80010A069C8B3C0
:101410003D49091D0968C1F3810102294AD002280A
:10142000504607D0C8F8600000E03CE0FFF734FD0C
:1014300004463BE04746C8F86000FFF72DFD06462E
:1014400005E000BFFFF728FD801B02282BD8286885
:101450008001F7D4D4E907010843A16A2E4A49085C
:1014600002EB0141626A41EA8211084394F82C10B0
:1014700040EA0161C9F8001001203866FFF70CFD51
:10148000044606E03EE000BFFFF706FD001B022811
:1014900009D828688001F7D534E000BFFFF7FCFCCD
:1014A000001B022802D90320BDE8F88F28688001BC
:1014B000F4D427E00128F7D0D9F80000E26900F45D
:1014C000800191421CD1226A00F03F01914217D164
:1014D00047F6C071626A0140B1EB821F10D1A26A67
:1014E0004FF0FF3300F4403103EB5202B1EB024FF7
:1014F00006D194F82C1000F07060B0EB016F01D0B1
:101500000120D1E70020CFE7043802400000474225
:10151000800E4742007000400000FFFF10B5401EE3
:10152000B0F1807F01D3012010BD4FF0E024606155
:101530000F21601702F08EF90020A06107202061C2
:10154000002010BD7047704710B590F83C20012A6C
:1015500022D0012280F83C20CA688C6822F44072B4
:1015600022434C6822F4806222430C6822F4006219
:1015700022430C6922F4805222434C6922F4005227
:101580002243C969002322F480420A4301684A6465
:1015900080F83C30002010BD022010BD70B590F8DE
:1015A0003C20012A32D0012480F83C40022280F8FD
:1015B0003D2003685A689D6822F070060A6832432D
:1015C0005A60134B02689A4214D0B2F1804F11D086
:1015D000104B9A420ED0104B9A420BD00F4B9A42AE
:1015E00008D00F4B9A4205D00E4B9A4202D00E4BB8
:1015F0009A4204D1496825F080031943916080F82C
:101600003D40002180F83C10084670BD022070BDAE
:10161000000001400004004000080040000C0040B1
:1016200000040140004001400018004010B50400D3
:1016300003D094F83D0010B107E0012010BD002058
:1016400084F83C00204600F01FF8022084F83D009A
:10165000211D206801F0D8FD012084F8460084F89F
:101660003E0084F83F0084F8400084F8410084F88C
:10167000420084F8430084F8440084F8450084F86C
:101680003D00002010BD000008B500680F498842E9
:101690001AD10F48016841F008010160006800227A
:1016A00000F00800009011463220FFF763FC322062
:1016B000FFF752FC002201213220FFF75BFCBDE85E
:1016C00008403220FFF748BC08BD0000000C004075
:1016D0004038024090F83D10012901D001207047A8
:1016E000022180F83D100168CA6842F00102CA6018
:1016F00000681149884214D0B0F1804F11D00F49D1
:1017000088420ED00E4988420BD00E49884208D03C
:101710000D49884205D00D49884202D00C498842C3
:1017200004D1816801F00701062903D0016841F066
:1017300001010160002070470000014000040040EA
:1017400000080040000C004000040140004001403F
:101750000018004070B5044690F83C0000250128B0
:1017600017D0012684F83C60022084F83D002068F0
:10177000826822F0770222F47F4282600868502853
:1017800038D00DDC20284FD005DC90B3102811D1C3
:101790004AE0022070BD302846D040280AD13BE004
:1017A00060282FD070280DD0B0F5805F03D0B0F541
:1017B000005F12D0012584F83D60002084F83C00D1
:1017C000284670BDCB68D1E90121206801F091FD68
:1017D0002068816841F0770109E0CB68D1E90121F7
:1017E000206801F086FD2068816841F480418160B5
:1017F000E1E719E0CA684968206801F04FFE50210E
:10180000206806E0CA684968206801F058FE602137
:10181000206801F078FDCEE7CA684968206801F0C9
:101820003DFE40212068F4E7226801461046F0E7BB
:101830002DE9F0410D46040003D094F83D0018B1A5
:1018400008E00120BDE8F081002084F83C0020463B
:1018500000F040F8022084F83D002068816844F2DE
:10186000070291438160211D206801F0CDFC2268B0
:1018700090689169166A2B68AF69034340F20330A0
:10188000814341EA0721A868EF6908434FF6FC410C
:101890008843E96840EA0720014328692F6A00016C
:1018A00040EA0730084369686D6926F0AA0646EAEF
:1018B0000515294393602268906154F8460B016234
:1018C000012004F81F09E0752076E0762077A075E6
:1018D0000020B7E7F0B587B0044614216846FEF74C
:1018E0005AFD3E49256800223C4B103902243C48F1
:1018F000B5F1804F1ED03B4FC026BD4232D11D688E
:1019000045F002051D601B6803F0020305930B6898
:1019100043F001030B6009680096CDE9014201F034
:101920000101CDE9044103924FEA0D01FFF7B2F93D
:1019300007B0F0BD1D6845F001051D601B6803F090
:10194000010305930B6843F001030B60096801F084
:101950000101059122210091CDE901420121CDE94A
:101960000321E1E72048854219D1186840F00400BE
:101970001860186800F004000590086840F008003E
:1019800008600868694600F0080005904FF4405070
:101990000090CDE90142CDE903241448C6E714487C
:1019A0008542C5D10D48001D036843F00203036062
:1019B000006800F002000590086840F0040008602C
:1019C0000868009600F004000590CDE9014203206C
:1019D000CDE9032069460748A8E7000040380240E7
:1019E000000002400004004000080040000C0240DB
:1019F000000401400008024070B590F83E600446C3
:101A000090F83F5090F8423090F84320022021B1E6
:101A100004290ED0012E1BD114E0012E18D1012B68
:101A200016D184F83E0084F842000122002120688B
:101A300020E0012D0CD1012A0AD184F83F0084F85E
:101A4000430014E0012D03D1012B01D1012A01D063
:101A5000012070BD84F83E0084F83F0084F8420005
:101A600084F8430001220021206801F035FC0122A6
:101A70000421206801F030FC2068016841F0010178
:101A80000160002070BD70472DE9F04104460068F8
:101A9000C66805694FF00007A90713D5B10711D52E
:101AA000F91E0161012020772068806980072046A7
:101AB00002D0FFF7E8FF04E000F0A8F8204600F0AD
:101AC0004DF92777680716D5700714D521686FF090
:101AD00004000861022020772068806910F4407FAC
:101AE000204602D0FFF7CFFF04E000F08FF8204639
:101AF00000F034F92777280715D5300713D521686A
:101B00006FF008000861042020772068C069800712
:101B1000204602D0FFF7B7FF04E000F077F8204638
:101B200000F01CF92777E80616D5F00614D52168D1
:101B30006FF010000861082020772068C06910F459
:101B4000407F204602D0FFF79EFF04E000F05EF8E1
:101B5000204600F003F92777E80708D0F00706D001
:101B600021686FF001000861204600F05DF9280649
:101B700008D5300606D521686FF080000861204640
:101B8000FFF7E0FC680608D5700606D521686FF0FF
:101B900040000861204600F04FF9A8060AD5B006BB
:101BA00008D521686FF0200008612046BDE8F041AB
:101BB000FFF7C9BCBDE8F08110B586B0044614211A
:101BC0006846FEF7E8FB0E492068884216D10D48AA
:101BD0000021026842F010020260006800F010006C
:101BE00005904FF4D44000900220CDE9010101207E
:101BF000CDE9031069460448FFF74CF806B010BD64
:101C0000000001403038024000100240704770B5BB
:101C1000044690F83C0000260D4601280FD0012014
:101C200084F83C006AB1042A1DD0082A2FD00C2A5F
:101C30003FD00126002084F83C00304670BD0220D1
:101C400070BD206801F068FB2068816941F00801DF
:101C500081612068816921F00401816120688169C6
:101C60002A69114311E0206801F086FB2068816930
:101C700041F4006181612068816921F480618161A2
:101C8000206881692A6941EA02218161D2E72068DE
:101C900001F0A8FB2068C16941F00801C16120681A
:101CA000C16921F00401C1612068C1692A69114339
:101CB00011E0206801F0CAFB2068C16941F40061AD
:101CC000C1612068C16921F48061C1612068C16976
:101CD0002A6941EA0221C161ACE710B5040003D0D2
:101CE00094F83D0010B107E0012010BD002084F8F9
:101CF0003C00204600F01EF8022084F83D00211D23
:101D0000206801F081FA012084F8460084F83E0042
:101D100084F83F0084F8400084F8410084F84200D1
:101D200084F8430084F8440084F8450084F83D00BA
:101D3000002010BD08B500680649884208D1064851
:101D4000016841F001010160006800F001000090AD
:101D500008BD000000000140443802407047000008
:101D600010B50446022249B104290ED0082913D027
:101D700094F84100012816D0012010BD94F83E00CF
:101D80000128F9D184F83E200FE094F83F000128A3
:101D9000F2D184F83F2008E094F840000128EBD10C
:101DA00084F8402001E084F841200122206801F0FD
:101DB00093FA16492068164A884201D0904203D10E
:101DC000436C43F4004343642068884213D0B0F16D
:101DD000804F10D00F4988420DD00F4988420AD059
:101DE0000E49884207D0904205D00D49884202D062
:101DF0000C49884204D1816801F00701062903D00B
:101E0000016841F001010160002010BD00000140A7
:101E1000000401400004004000080040000C0040A5
:101E200000400140001800400249884201D1FEF7FD
:101E300099BB7047680700207047704770470000E3
:101E4000F8B5016804460868CA684B6910F00F0FBE
:101E50004FF0000559D003F0010602F490773743A4
:101E600065D0C10705D0D10503D5616C41F00101F2
:101E70006164410705D5D90703D0616C41F00201C7
:101E80006164810705D5D90703D0616C41F0040175
:101E90006164010707D502F02001314303D0616C72
:101EA00041F008016164616C00293AD0800604D5D4
:101EB000900602D5204601F09BFB20684069616CCA
:101EC000C0F38010090700D460B3204601F05BFB2B
:101ED00020684069400621D52068143050E8001F72
:101EE00021F0400140E80012002AF5D1E06BA8B1D2
:101EF00072490165E06BFEF748FD002811D0E06BE8
:101F0000016D01B0BDE8F040084783060FD5930688
:101F10000DD52046BDE8F84001F06ABB2046FFF72A
:101F20008DFFF8BD2046FFF789FF6564F8BD266B7D
:101F30002023012E7ED1C6067CD5D6067AD5086828
:101F40004868009048694FF0020640064DD5E26BA4
:101F5000106840684FF480770004000C3AD0A18DDF
:101F6000814237D9E085D069B8422DD020680C3045
:101F700050E8001F21F4807140E80012002AF5D1DA
:101F80002068143050E8001F21F0010140E80012E1
:101F9000002AF5D12068143050E8001F21F04001DC
:101FA00040E80012002AF5D184F842302563206809
:101FB0000C3050E8001F21F0100140E80012002A08
:101FC000F5D1E06BFEF798FC6663A08DE18D401AB9
:101FD00081B206E0A18D8142A8D1D069B842A5D1D5
:101FE00066632046FFF729FFF8BDA08DE18D401AFA
:101FF00081B2E08D0028F7D00029F5D020680C30A0
:1020000050E8002F22F4907240E80027002FF5D10D
:102010002068143050E8002F22F0010240E8002729
:10202000002FF5D184F84230256320680C3050E849
:10203000002F00E006E022F0100240E80023002B11
:10204000F3D1CDE705062BD5150629D594F8410027
:102050002128C9D1A068B0F5805F01D12069B0B155
:10206000206A411C2162216800784860E08C401E93
:102070000004000CE084B7D12068C16821F0800121
:10208000C1602068C16841F04001C160F8BD206AAC
:102090000088C0F308004860206A801C2062E5E7E1
:1020A0004006F3D55006F1D5CA68204622F040021A
:1020B000CA6084F8413000F0D3F9F8BDE334000879
:1020C00070B5040004D094F84100002510B106E07A
:1020D000012070BD84F84050204600F023F82420F1
:1020E00084F841002068C16821F40051C160204695
:1020F00001F0E0FA2068016921F490410161206853
:10210000416921F02A0141612068C16841F4005110
:10211000C1606564202084F8410084F84200656352
:10212000002070BD2DE9F04F87B0054614216846A8
:10213000FEF731F99F48DFF878820221D5F800C018
:102140000322072300248E0607154FF040094FF4A1
:10215000807AC44562D1DFF85CC20CF1140CDCF863
:10216000008048F01008CCF80080DCF800C00CF0CB
:10217000100CCDF814C0D0F800C04CF0010CC0F821
:1021800000C0006800F00100059050028DE81300C7
:1021900069468948CDE90323FEF77CFDDFF82082FC
:1021A00086494046C0E90347C8F81440C8F81840BB
:1021B000C8F81C40C8F8204088E84202C8F824400B
:1021C000FEF7C6FC08B1FEF756FBC5F83880C8F824
:1021D0003850DFF8EC81794908F1600878394046D9
:1021E000C8F80010C0E90164C0E90347C8F814400A
:1021F000C0E9064AC8F82040C8F82440FEF7A8FC09
:1022000008B1FEF738FBC5F83C80002211462520B6
:10221000C8F83850FEF7AEFE252063E0DFF8A48151
:10222000DFF890E1C4450EF1100E60D1DEF80080B9
:10223000A34648F40038CEF80080DEF800C00CF465
:10224000003CCDF814C0D0F800C04CF0010CC0F830
:1022500000C0006800F0010005900C208DE813001C
:1022600069465548CDE90323FEF714FDDFF8508198
:10227000554908F1C0084046C8F80010C0E901649B
:10228000C0E90347C8F81440C0E9064AC8F820402E
:10229000C8F82440FEF75CFC08B1FEF7ECFA4A48A7
:1022A0004A4CC5F83C801830C8F8385084E84102E0
:1022B000C4E903B7C4F814B0C4F818B0C4F81CB02B
:1022C000C4F820B02046C4F824B0FEF741FC08B1A1
:1022D000FEF7D1FAAC63002211462620A563FEF773
:1022E00049FE2620FEF738FE07B0BDE8F08FDFF884
:1022F000E080C445F8D1DEF8008048F48028CEF8AC
:102300000080DEF800C00CF4802CCDF814C0D0F8AA
:1023100000C04CF0020CC0F800C0006800F00200E1
:1023200005904FF440608DE8130069462948CDE9D7
:102330000323FEF7AFFCDFF89480234908F160081F
:1023400060394046C8F80010C0E90164C0E903479D
:10235000C8F81440C0E9064AC8F82040C8F824402C
:10236000FEF7F6FB08B1FEF786FAC5F83C80C8F820
:102370003850DFF85880144908F1C0084046303919
:10238000C0E90347C8F81440C8F81840C8F81C4012
:10239000C8F8204088E84202C8F82440FEF7D8FB7D
:1023A00008B1FEF768FAC5F83880C8F838509BE7DE
:1023B000001001403038024000000240B864024082
:1023C000D00800200044004088600240F00900204E
:1023D00000480040000402407047000070B5044609
:1023E00090F84100202801D0022070BD01B3FAB15D
:1023F0002162A284E28400206064212384F84130B9
:10240000A56B144BEB63A56B134B2B64A56B134BA4
:10241000EB64A36B186520681346A56B021D284664
:10242000FEF700FC30B110206064202084F84100E9
:10243000012070BD21686FF04000086020681430F2
:1024400050E8001F41F0800140E80012002AF5D159
:10245000002070BD3B3500087D350008F1340008D0
:102460000149002008727047A00000207047FEE775
:10247000214808B5016841F480010160016801F458
:1024800080010091016841F40011016000680022A0
:1024900000F40010009011460C20FEF76BFD0C209C
:1024A000FEF75AFD002211460E20FEF763FD0E20B6
:1024B000FEF752FD002211461020FEF75BFD1020B2
:1024C000FEF74AFD002211461120FEF753FD1120B0
:1024D000FEF742FD002211463A20FEF74BFD3A205E
:1024E000FEF73AFD002211464620FEF743FDBDE807
:1024F00008404620FEF730BD303802402DE9F04359
:1025000087B014216846FDF746FF4448002401685F
:1025100041F010010160016801F0100105910168AE
:1025200041F080010160016801F0800105910168BE
:1025300041F001010160016801F0010105910168AC
:1025400041F002010160016801F00201059101689A
:1025500041F008010160016801F00801059101687E
:1025600041F00401016000682D4F00F004004FF4B9
:1025700018460590002231463846FEF788FCDFF801
:10258000A4800022F0214046FEF781FCDFF89890FD
:1025900000224FF47A714846FEF779FC1C20012591
:1025A0008DE8310069462148FEF774FB0220009552
:1025B000CDE9014069463846FEF76CFB0096CDE94F
:1025C0000154694638460394FEF764FBA8028DE87F
:1025D000310069461648FEF75DFBF0200090CDE91A
:1025E0000154694640460394FEF754FBE8200090EE
:1025F000CDE90154694648460394FEF74BFB4FF47E
:10260000407000901120CDE9010503200390694638
:102610004846FEF73FFB07B0BDE8F0833038024084
:1026200000000240000C0240000402400010024082
:102630000008024010B592B000240F941C21684697
:102640001094FDF7A8FE202107A8FDF7A4FE2C4852
:102650002A49C0E900144FF6FF71C0E90241046144
:1026600044618461FFF739FB08B1FEF704F90F9468
:102670000FA923481094FEF791FF08B1FEF7FBF86D
:102680006020CDE900040294039404940594002290
:1026900069461B480694FFF7BAFA08B1FEF7EBF853
:1026A000042269461648FFF7B2FA08B1FEF7E3F8CC
:1026B000082269461248FFF7AAFA08B1FEF7DBF8CC
:1026C0000C2269460E48FFF7A2FA08B1FEF7D3F8CC
:1026D0000794089409944FF400500A94CDE90B40F4
:1026E00007A907480E94FEF72FFF08B1FEF7C3F8BD
:1026F0000348FFF761FA12B010BD0000000001406E
:102700004806002010B58CB024216846FDF743FE32
:102710000024154809944FF080410A94C0E9001440
:102720004FF6FF71C0E90241046184610320CDE9E5
:1027300000040120CDE902040494CDE9054007948A
:10274000694609480894FFF773F808B1FEF793F853
:10275000099409A904480A94FEF720FF002801D033
:10276000FEF789F80CB010BD9006002010B58CB0B3
:1027700024216846FDF70FFE0024164809941449E9
:102780000A94C0E900144FF6FF71C0E902410461E8
:1027900084610320CDE900040120CDE90204049402
:1027A000CDE90540079469460A480894FFF740F8C8
:1027B00008B1FEF760F8099409A906480A94FEF7E3
:1027C000EDFE002801D0FEF756F80CB010BD000059
:1027D00000040040D806002010B58CB024216846C3
:1027E000FDF7D9FD00241648099414490A94C0E95C
:1027F00000144FF6FF71C0E90241046184610320B7
:10280000CDE900040120CDE902040494CDE905409E
:10281000079469460A480894FFF70AF808B1FEF7DA
:102820002AF8099409A906480A94FEF7B7FE002879
:1028300001D0FEF720F80CB010BD000000080040E9
:102840002007002010B586B000241748009401949A
:1028500002940394049413490594016042F2CF0159
:10286000C0E901146321C0E903148461FEF7DEFEB0
:1028700008B1FEF700F84FF48050009069460A480E
:10288000FEF768FF08B1FDF7F6FF049404A90648B7
:102890000594FEF783FE002801D0FDF7ECFF06B09B
:1028A00010BD0000000C00406807002010B58CB07F
:1028B00024216846FDF76FFD002416480994144949
:1028C0000A94C0E900144FF6FF71C0E902410461A7
:1028D000446184610320CDE900040120CDE90204B4
:1028E0000494CDE90540079469460A480894FEF728
:1028F0009FFF08B1FDF7BFFF099409A905480A9495
:10290000FEF74CFE002801D0FDF7B5FF0CB010BD5E
:1029100000040140B00700200C4810B50A490160CE
:102920004FF4E1314160002181600C22C160C0E9B7
:1029300004128161C161FFF7C3FB002803D0BDE829
:102940001040FDF798BF10BD00100140F8070020AF
:102950000C4810B50A4901604FF4E1314160002193
:1029600081600C22C160C0E904128161C161FFF77E
:10297000A7FB002803D0BDE81040FDF77CBF10BDC9
:1029800000440040400800200C4810B50A4901608E
:102990004FF4E1314160002181600C22C160C0E947
:1029A00004128161C161FFF78BFB002803D0BDE8F1
:1029B0001040FDF760BF10BD0048004088080020AF
:1029C000FEE700002DE9F041C50FCC0F002801DB28
:1029D000064600E04642002901DB0F4600E04F4278
:1029E0002946134800F096FB11482946503000F064
:1029F00091FB0F482146283000F08CFB0C48214603
:102A0000783000F087FB3146094800F087F8084825
:102A10003146503000F082F805483946283000F041
:102A20007DF83946BDE8F0410148783000F076B8CD
:102A30000000002081690968496A828B81838A1AB3
:102A4000016A12B21144016282847047B0F9240015
:102A5000704700002DE9F0411E4CA1882068FFF767
:102A60007FF904F12805A9882868FFF779F904F1AE
:102A70005006B1883068FFF773F904F17807B98818
:102A80003868FFF76DF93C21A069FEF7B5FF3C21DE
:102A9000A869FEF7B1FF3C21B069FEF7ADFF3C210C
:102AA000B869FEF7A9FFA169002009684862A96911
:102AB00009684862B16909684862B9690968486289
:102AC00000F046F804480068416C41F4004141645C
:102AD000BDE8F08100000020480600200E4930B516
:102AE000002001F12802086201F15003106201F197
:102AF0007804186220628D692D68686295692D6876
:102B000068629D692D686862A5692D68686288831E
:102B100090839883A08330BD0000002010B54FF44F
:102B20007A73994200D9194602681268D46A80887B
:102B30006143B1FBF3F128B1042805D0082805D082
:102B4000116410BD516310BD916310BDD16310BD00
:102B500010B500211348FFF7E1FF1248002128308B
:102B6000FFF7DCFF0F4800215030FFF7D7FF0D487B
:102B700000217830FFF7D2FF03210A4800F0CAFA9B
:102B800008480321283000F0C5FA064803215030D8
:102B900000F0C0FA03480321BDE81040783000F08F
:102BA000B9BA000000000020FEE7000010B50021C7
:102BB000074C0A46002004EBC1131A54401CC0B253
:102BC0008028FAD3491CC9B20829F3D310BD0000EC
:102BD000A8010020F0B50B4424E0044685181DE050
:102BE0007F2C19D8002917DB3F2915DCCE1701EB04
:102BF00056764FEAE60C0D4F26F0070607EBCC178A
:102C00002744A1EB060E97F800C0012606FA0EF63F
:102C10002CEA060C87F800C0641C24B2A542DFDC55
:102C2000491C09B28B42D8DCF0BD0000A80100208D
:102C300010B500204FF47A720021491C9142FCD358
:102C4000401C9042F8D3012000F0A8F9BDE81040E4
:102C5000012000F0ABB970B500240646802525FAA6
:102C600004F0304000D0012000F0A0F9012000F075
:102C700095F9002000F092F9641CE4B2082CEED320
:102C8000012000F08BF9BDE87040002000F086B90B
:102C900010B5012000F08AF9012000F07FF9002032
:102CA00000F084F9BDE81040002000F077B910B5BD
:102CB000002000F07BF9012000F070F9BDE8104021
:102CC000012000F073B910B5FFF7B2FFAE2000F09D
:102CD00075F9D52000F072F9802000F06FF9A82076
:102CE00000F06CF93F2000F069F9D32000F066F99C
:102CF000002000F063F9402000F060F9A12000F00E
:102D00005DF9C82000F05AF9DA2000F057F91220D6
:102D100000F054F9812000F051F9CF2000F04EF975
:102D2000D92000F04BF9F12000F048F9DB2000F049
:102D300045F9302000F042F9A42000F03FF9A62028
:102D400000F03CF98D2000F039F9142000F036F93C
:102D5000AF2000F033F9FFF729FFBDE8104000F085
:102D600009B90246012000E05043491EFCD27047D9
:102D700010B50C4640F0B00000F020F9102040EAF9
:102D8000141000F01BF904F00F00BDE8104000F033
:102D900015B9000008B5082B0DD0062B0AD10A4B37
:102DA00002EB420203EB4202C03A009208230622E1
:102DB00000F00EF808BD054B03EB0212A2F50072FD
:102DC000102300920822F3E7FE4000080E3B0008A3
:102DD0002DE9F04F1F4616460C4682460025FFF7A8
:102DE000F9FE7F1EF81707EB50700121DFF89CB049
:102DF00001EBE00745E000203FE000BF0AEB0003E5
:102E00007F2B38D8E11704EB5171CA1021F007016C
:102E1000611A002C03DA521E083112B209B202EB19
:102E20000509B9F1070F10D80BEBC91E1EF80320D6
:102E300015FB06F8DDF824C0844418F80CC00CFA21
:102E400001FC42EA0C020EF8032009F10102072AF4
:102E500011D80BEBC91202EB030898F8803015FB70
:102E600006FC099AC1F1080102441CF80220CA407C
:102E7000134388F88030401CC0B2B042BED36D1CF2
:102E8000EDB2AF42B7DCBDE8F08F0000A801002032
:102E90002DE9F0471E46DDF8208014008A46814661
:102EA000434604D42B22FFF775FF254603E02D226D
:102EB000FFF770FF654200240A2714E0311B0A2047
:102EC000491EFFF74EFFB5FBF0F0B0FBF7F107FB33
:102ED0001102641C04FB089000B243465146303294
:102EE000FFF758FFE4B2B442E8D3BDE8F0872DE91C
:102EF000F04300241F46154689468046264634E0A6
:102F000010060BD4641C08EB0600A4B200B23B46CA
:102F10004946FFF73FFFF01986B226E00620B0EBE6
:102F2000521F02D1641CA0B206E00E20B0EB121FAB
:102F300008D1641CA0B211E0295C002918D0401C03
:102F400084B212E01E20B0EBD20F04F101040BD1C9
:102F5000A0B2295C00290BD0401C80B2295C00295A
:102F600006D0401C80B2E7E7A4B22A5D002AC7D190
:102F7000BDE8F08370B5084D002400212046FFF71E
:102F8000F7FE05EBC410802100F029F8641CE4B2C0
:102F9000082CF2D370BD0000A801002002464FF4B7
:102FA00080710148FDF773BF0004024002464FF4F0
:102FB00000710148FDF76BBF0004024010B50446E4
:102FC000FFF766FE7820FFF746FE0020FFF743FE7E
:102FD0002046FFF740FEBDE81040FFF768BE70B521
:102FE0000D460646FFF754FE7820FFF734FE4020DA
:102FF000FFF731FE002404E0305DFFF72CFE641C77
:10300000E4B2AC42F8D3BDE87040FFF750BE000018
:103010009FED050A80ED090A80ED0A0A80ED0B0A92
:1030200080ED0F0A7047000000000000D0ED091A83
:10303000DFED362AC0ED0A1A90EC020A30EE600A83
:1030400080ED090A90ED031AB5EEC01AF1EE10FA00
:1030500035D090ED062AB5EEC02AF1EE10FA0ED06A
:10306000B5EEC00AF1EE10FA02DBF0EE400A01E024
:10307000F1EE400AB4EEE02AF1EE10FA06DDD0EDF2
:103080000B0A70EE800AC0ED0B0A01E0C0ED0B2ABE
:1030900090ED0B2AD0ED050AB4EEE02AF1EE10FA1D
:1030A00001DDC0ED0B0A90ED0B2AF1EE600AB4EEE3
:1030B000E02AF1EE10FA04D2C0ED0B0A01E0C0EDF7
:1030C0000B2AD0ED020A90ED0B2A60EE800A30EE5A
:1030D000610A41EE020A90ED041A41EE000AC0EDC9
:1030E0000F0A90ED080AF4EEC00AF1EE10FA01DDC5
:1030F00080ED0F0AD0ED0F0A90ED070AF4EEC00A3A
:10310000F1EE10FA01D280ED0F0A704700000000C6
:103110007047704710B504460A008068A18905D041
:10312000012A0AD0022A0AD0002200E00122FDF77B
:10313000AEFEA18A0022206907E0002200E0012201
:10314000FDF7A5FEA18A20690122BDE81040FDF728
:103150009EBEFDF7A7BE000030B593B03021684693
:10316000FDF719F914210CA8FDF715F91D480025E4
:10317000016841F080510160006800F080501190BA
:103180001948016841F4804101600068022400F49C
:103190008040119001200390102000940694049028
:1031A000CDE90750C020CDE9090404200B90684602
:1031B000FDF7FEFF08B172B6FEE70CA90F2081E80B
:1031C00031004FF4A0500F904FF480501090032125
:1031D0000CA8FDF701FF002801D072B6FEE713B07E
:1031E00030BD0000403802400070004002480168D5
:1031F00041F470010160704788ED00E00148FEF77E
:1032000043BC000068070020F0B50268274B284D3A
:10321000284E294F294C4FF0804C984209D06045E8
:1032200007D0A84205D0B04203D0B84201D0A04296
:1032300004D122F0700E4A6842EA0E0298421BD076
:10324000604519D0A84217D0B04215D0B84213D06B
:10325000A04211D01A4DA8420ED01A4DA8420BD050
:10326000194DA84208D0194DA84205D0184DA842C2
:1032700002D0184DA84203D122F44075CA682A43EF
:103280004D6922F080022A438D68C5620D6885620F
:10329000984201D0A04201D109690163016841F05F
:1032A00004010160012141610260F0BD00000140A4
:1032B0000004004000080040000C004000040140F1
:1032C0000040014000440140004801400018004017
:1032D000001C00400020004010B501F01F03012138
:1032E000046A99408C430462016A9A401143016266
:1032F00010BD10B5846842EA032224F47F440A43D7
:103300002243826010BD826822F070020A4342F0BC
:103310000701816070470000F0B5036A026A22F07D
:103320000102026242688469124E24F073050C683F
:103330002C4323F002058B682B430D4DA84201D08E
:10334000B04205D123F00807CB683B4323F00403C8
:10335000A84201D0B04205D14D6922F44072154314
:103360008A692A4342608461496841630362F0BD0F
:103370000000014000040140F0B5026A036A23F036
:1033800010030362436884690D6824F4E64444EA48
:1033900005248D6822F0200242EA05120F4D104EDE
:1033A000A84201D0B04206D1CF6822F0800242EAA2
:1033B000071222F04002A84201D0B04207D14D6965
:1033C00023F4406343EA85038D6943EA8503436040
:1033D0008461496881630262F0BD00000000014021
:1033E00000040140F0B5026A036A23F480730362AB
:1033F0004368C46922F4007224F073050C68124E0D
:103400002C438D6842EA05220E4DA84201D0B042FD
:1034100006D1CF6822F4006242EA072222F48062D9
:10342000A84201D0B04207D14D6923F4405343EA8A
:1034300005138D6943EA05134360C4614968C1639C
:103440000262F0BD000001400004014030B5046A92
:10345000026A22F4805202624268C3690D6823F452
:10346000E64343EA05238D6824F4005444EA053416
:10347000084DA84202D0084DA84204D14D6922F45B
:10348000804242EA85124260C36149680164046275
:1034900030BD0000000001400004014010B5036A87
:1034A000046A24F001040462846924F0F00444EA0C
:1034B000021423F00A020A438461026210BD10B5AF
:1034C000036A046A24F010040462846923F0A003F0
:1034D00024F4704444EA023243EA01118261016239
:1034E00010BD10B5806B0021C185FEF7A7FC10BD93
:1034F00070B5846B2068406994F84110C0F3C01027
:103500000025212904D118B1E584204600F062F895
:103510002068406994F84210C0F38010222904D139
:1035200018B1E585204600F02EF8606C40F01000E0
:1035300060642046FEF782FC70BD10B50146806BCA
:1035400009680968C90516D40021C18401681431CD
:1035500051E8002F22F0800241E80023002BF5D132
:1035600001680C3151E8002F42F0400241E800238D
:10357000002BF5D110BDFEF773FF10BD10B5806BA9
:10358000FEF774FF10BD01680C3151E8002F22F4E2
:10359000907241E80023002BF5D10168143151E805
:1035A000002F22F0010241E80023002BF5D1016B2E
:1035B000012909D101680C3151E8002F22F01002D5
:1035C00041E80023002BF5D1202180F84210002192
:1035D0000163704701680C3151E8002F22F0C002EE
:1035E00041E80023002BF5D1202180F841107047DD
:1035F00008B590F84210222901D0022008BD826847
:103600004FF480539A4201D1016921B1816A9A42F3
:103610001BD04AB10AE00268816A5268C2F308020C
:103620000A80816A891C08E0026972B102685268E6
:1036300002F07F020A70816A491C8162C18D491EB5
:103640000904090CC18503D01BE002685268F1E748
:103650000168CA6822F02002CA600168CA6822F4C0
:103660008072CA6001684A6922F001024A61202121
:1036700080F8421000214163026B012A03D0FEF75B
:10368000ABFE002008BD016301680C3151E8002F3A
:1036900022F0100241E80023002BF5D101680A68EE
:1036A000D20602D50A6849680091818DFEF7C5FBF4
:1036B000E7E7000070B5044600680169E26821F49C
:1036C0004051114301612169A068E26908436169C1
:1036D000114308432168CA6849F20C639A430243C4
:1036E000CA6020684169A26921F4407111434161B7
:1036F00031492068884202D03049884202D1FDF722
:1037000015FD01E0FDF702FDE269002319216425A2
:103710003226B2F5004F626828D0A0FB0101930F5A
:103720009200FCF7C1FD0146B0FBF5F06FF0180206
:10373000504301EB800006EB0010B0FBF5F000F009
:10374000F002B1FBF5F002EB0012B1FBF5F06FF007
:103750001803584301EB800006EB0010B0FBF5F0B6
:1037600000F00F0021681044886070BDA0FB0101CB
:1037700092185B41FCF798FD0146B0FBF5F00201A1
:10378000B1FBF5F06FF01803584301EB800006EB36
:10379000C000B0FBF5F000F0F80002EB4002B1FB16
:1037A000F5F0584301EB800006EBC000B0FBF5F0EC
:1037B00000F00700D6E700000010014000140140AF
:1037C0000148FEF73DBB0000F80700200148FEF766
:1037D00037BB000040080020FEE700002DE9F04163
:1037E000194D88B0287A00282BD18DEC080A0021C9
:1037F0000C466F464FF02C08144E00BF07EB8400B8
:10380000A02290ED000A114800F034F80146801C17
:10381000A02816DA072C02DA06F80180491C641C7D
:10382000082CEBDB481CA0280BDA0A207054491C3A
:103830008AB206490648FEF7D1FD002801D10120D1
:10384000287208B0BDE8F081A0000020A805002083
:10385000F80700200907090E002804DB00F1E0202A
:1038600080F80014704700F00F0000F1E02080F8AD
:10387000141D7047FFB5074610EE100A3F4B404A33
:10388000984202D99FED3F0A05E010EE100A9042DF
:1038900001DD9FED3D0ADFED3D1AFDEEC00AB5EEFC
:1038A000C00A10EE902AF6EE000AF1EE10FA01EED0
:1038B000102AB8EEC11A30EE411A02DB41EE210A9D
:1038C00001E041EE610AFDEEE00A10EE903A642B51
:1038D00001DB521C643B00200A244FF02D0E6E4683
:1038E000002A03D00BDAC2F1000509E0B5EEC00AE8
:1038F000F1EE10FA05D28DF800E0012001E0154646
:103900007DB930253554401C0DE000BF95FBF4FC1B
:1039100004FB1C5C95FBF4F50CF1300C06F800C0C0
:10392000401C002DF2DC002A07DAB5EEC00AF1EEE9
:1039300010FA02DB06F800E0401C002206E0851ABF
:10394000354415F8015C7D54491C521C8242F6DB5B
:103950002E207854481C93FBF4F191FBF4F204FB05
:1039600012113031395493FBF4F104FB1131401C36
:103970003031395404B0401CF0BD00000050C3C7C2
:103980000050C3470050C3C70050C3470000C8429F
:1039900008B5FDF78FFAFFF7DFFBFEF7AFFDFEF787
:1039A00067FDFEF747FEFEF7ADFEFEF7DFFEFEF712
:1039B00013FFFEF77BFFFEF7AFFFFEF7C9FFFEF731
:1039C000E3FFFEF73FFFFCF74BFD3C48FDF782FEAF
:1039D0003B480068C16841F40051C160394D00BFE7
:1039E000FCF76AFDFDF758FA2968411A6429F7D3F4
:1039F0002860FFF7DBF80021082333A20846FFF711
:103A000076FA32480824009490ED000A032300213E
:103A1000BDEEC00A182010EE102AFFF739FA08236D
:103A20002BA200214020FFF762FA2A4800940323CA
:103A300090ED000A00215820BDEEC00A10EE102AB9
:103A4000FFF726FA082324A210210020FFF74FFADF
:103A5000224800940423B0F9002010211820FFF719
:103A600017FA08231EA210214020FFF740FA1D4834
:103A700000940423B0F9002010215820FFF708FA21
:103A8000082319A220210020FFF731FA17480078F7
:103A900020B1012805D0022809D10BE0082314A287
:103AA00001E0082314A220212820FFF720FAFFF7C5
:103AB00061FA95E7082311A2F5E7000068070020E6
:103AC000F8070020940100204D333A00BC0000208C
:103AD0004D343A00C00000204C503A00AA000020AB
:103AE00052503A00AC00002053543A00A00000208D
:103AF00049444C450000000052554E00444F4E458D
:103B0000000000004FF04070E1EE100A7047000026
:103B100000000000000000000000000000000000A5
:103B200000F8000000000000003330000000001624
:103B30000E00160E0000000000000000000040C053
:103B40007840C0784000043F04043F040400007043
:103B500088FC08300000001820FF211E0000F0083B
:103B6000F000E018000000211C031E211E0000F0E0
:103B70000888700000001E2123241927211000004E
:103B800000160E0000000000000000000000000011
:103B900000E01804020000000007182040000002A6
:103BA0000418E0000000004020180700000040401A
:103BB00080F0804040000202010F0102020000007C
:103BC00000F0000000000101011F010101000000E0
:103BD00000000000000000B07000000000000000C5
:103BE00000000000000000010101010101010000CE
:103BF0000000000000000030300000000000000065
:103C0000000080601804006018060100000000E059
:103C100010080810E000000F102020100F00001006
:103C200010F8000000000020203F2020000000705D
:103C30000808088870000030282422213000003055
:103C40000888884830000018202020110E0000004D
:103C5000C02010F8000000070424243F240000F8CE
:103C60000888880808000019212020110E0000E0B3
:103C7000108888180000000F112020110E00003855
:103C80000808C83808000000003F0000000000706D
:103C9000880808887000001C222121221C0000E0F6
:103CA00010080810E0000000312222110F0000006F
:103CB00000C0C00000000000003030000000000024
:103CC00000C0C0000000000080B0700000000000D4
:103CD000804020100800000102040810200040402D
:103CE0004040404040000404040404040400000870
:103CF0001020408000000020100804020100007025
:103D000048080808F0000000003036010000C0300C
:103D1000C828E810E0000718272423140B0000002F
:103D2000C038E0000000203C23020227382008F8B9
:103D3000888888700000203F202020110E00C030AD
:103D4000080808083800071820202010080008F884
:103D500008080810E000203F202020100F0008F87D
:103D60008888E8081000203F20202320180008F849
:103D70008888E8081000203F200003000000C030C1
:103D800008080838000007182020221E020008F842
:103D900008000008F808203F210101213F20000809
:103DA00008F8080800000020203F20200000000044
:103DB0000808F8080800C08080807F00000008F82C
:103DC00088C028180800203F20012638200008F865
:103DD000080000000000203F20202020300008F8CC
:103DE000F800F8F80800203F003F003F200008F8E6
:103DF00030C00008F808203F200007183F00E010FE
:103E000008080810E0000F10202020100F0008F80C
:103E100008080808F000203F210101010000E0101F
:103E200008080810E0000F18242438504F0008F844
:103E3000888888887000203F2000030C30200070A4
:103E40008808080838000038202121221C001808A2
:103E500008F8080818000000203F2000000008F8BB
:103E600008000008F808001F202020201F00087804
:103E7000880000C83808000007380E010000F80864
:103E800000F80008F800033C0700073C030008188E
:103E900068808068180820302C03032C30200838F4
:103EA000C800C83808000000203F200000001008AB
:103EB0000808C838080020382621202018000000F3
:103EC00000FE020202000000007F40404000000CA3
:103ED00030C000000000000000010638C0000002F1
:103EE0000202FE000000004040407F000000002071
:103EF000100804081020000000000000000000006E
:103F000000000000000080808080808080800002AF
:103F10000408000000000000000000000000000095
:103F20008080808000000019242222223F2008F88F
:103F3000008080000000003F112020110E000000D2
:103F4000008080800000000E112020201100000061
:103F500000808088F800000E112020103F20000013
:103F6000808080800000001F222222221300008017
:103F700080F0888888180020203F20200000000062
:103F8000808080808000006B94949493600008F897
:103F9000008080800000203F210000203F20008022
:103FA0009898000000000020203F20200000000022
:103FB00000809898000000C08080807F000008F892
:103FC000000080808000203F24022D302000000867
:103FD00008F8000000000020203F20200000808022
:103FE000808080808000203F20003F20003F0080B4
:103FF00080008080000000203F2100203F20000042
:10400000808080800000001F202020201F008080F2
:1040100000808000000080FFA12020110E00000021
:10402000008080808000000E112020A0FF80808012
:1040300080008080800020203F21200001000000BF
:104040008080808080000033242424241900008094
:1040500080E0808000000000001F202000008080A1
:10406000000000808000001F202020103F20808062
:1040700080000080808000010E30080601008080F2
:104080000080008080800F300C030C300F00008017
:104090008000808080000020312E0E312000808042
:1040A00080000080808080818E7018060100008072
:1040B0008080808080000021302C22213000000090
:1040C0000000807C020200000000003F4040000031
:1040D0000000FF00000000000000FF0000000002E0
:1040E000027C800000000040403F00000000008093
:1040F000404080000080000000000001010000003E
:10410000000000000000002F000000000700070072
:1041100000147F147F1400242A7F2A12002313081E
:10412000646200364955225000000007000000007C
:104130001C224100000041221C000014083E08140B
:104140000008083E0808000000A0600000080808F9
:104150000808000060600000002010080402003E13
:104160005149453E0000427F4000004261514946AE
:10417000002141454B31001814127F10002745459E
:104180004539003C4A4949300001710905030036B0
:104190004949493600064949291E000036360000C3
:1041A00000005636000000081422410000141414C8
:1041B0001414000041221408000201510906003EB7
:1041C0004955592E007C1211127C007F494949360D
:1041D000003E41414122007F4141221C007F49496C
:1041E0004941007F09090901003E4149497A007FA0
:1041F0000808087F0000417F4100002040413F0146
:10420000007F08142241007F40404040007F020CA4
:10421000027F007F0408107F003E4141413E007F45
:1042200009090906003E4151215E007F091929460E
:104230000046494949310001017F0101003F4040EA
:10424000403F001F2040201F003F4038403F006398
:1042500014081463000708700807006151494543BA
:1042600000007F414100000204081020000041418D
:104270007F00000402010204004040404040000072
:1042800001020400002054545478007F484444380C
:1042900000384444442000384444487F0038545493
:1042A000541800087E0901020018A4A4A47C007F11
:1042B000080404780000447D4000004080847D00B4
:1042C000007F102844000000417F4000007C04185B
:1042D0000478007C0804047800384444443800FC26
:1042E000242424180018242418FC007C0804040842
:1042F00000485454542000043F444020003C4040B7
:10430000207C001C2040201C003C4030403C0044ED
:1043100028102844001CA0A0A07C004464544C44F5
:104320000000087F41000000007F00000000417F86
:104330000800000804081008FCFDFF000001030449
:104340000006101600061016000000000000000015
:10435000010203040607080900000000010203042B
:104360008043000800000020A8010000C4010008EC
:10437000EC430008A8010020C80F0000200200083C
:1043800013480652205D040240400832806AD81863
:104390007129285A04203919190832080B10B0075E
:1043A000282918114A0C48290829580A1120285A86
:1043B0000C20391919083210DA9078013633A041EF
:1043C0002977190423FA4363C8420B647A4440678F
:1043D000B040CDCCCC3D293C1A40481B48C20459C2
:0C43E000480122320182101324F4000076
:040000050800018965
:00000001FF
